:040000008031122811
:100008007E14803120007F08FD00121D0D288231EA
:10001800E1227D082000FF007E10090080311428AD
:100028003030840000308500343087310E2780312D
:10003800873114278031E400873115278031E500A6
:10004800873116278031E60087311727E7007E10B1
:1000580020008631C02EED348034C33480343534EA
:100068008034363403343134003436340034463482
:100078000034313400343434003435340034353409
:1000880000342034003447340034653400346E348E
:100098000034653400347234003469340034633415
:1000A80000342034003448340034493400344434B3
:1000B8000034203400344434003465340034763459
:1000C8000034693400346334003465340034063451
:1000D800A034FF3409340134A13401340934013423
:1000E800153400342634FF3400347534083495341C
:1000F8000834813402340934013415340034263488
:10010800FF3400347534083495340834913402349B
:1001180009340234153400342634FF34003475347D
:10012800083495340834B1340234C0340934023404
:1001380029340034013401340034A0343234093411
:1001480004340034003402340334003400340034FE
:1001580009342134113401340034013422342F3469
:10016800003407340534813403340834003401344E
:1001780007340534013403340834003401341834A6
:1001880003344434003449340034593400342034BE
:10019800003444340034653400347634003469342F
:1001A800003463340034653400347334003412345A
:1001B8000134003402340034003400340834D834B4
:1001C8000434A534013401340034013402340034D9
:1001D80001340434033409340434F4012000B9012F
:1001E800F4017408031D08001E30F0007408993EDD
:1001F80086000E3087007008810074350907023EBA
:10020800643E860087010108F0007408F10002309E
:10021800F135FF3E031D0C297135093E203E86004D
:1002280087017008810074350907033E643E860023
:1002380087010108F0000030F1007408F200023074
:10024800F235FF3E031D242972350A3E203E860002
:1002580087017008C03F7108C13F8830F0007408FA
:10026800F1000230F135FF3E031D36297135083E95
:10027800203E86008701700881007408F000013074
:10028800F035890B44290314700D643E86008701FC
:100298000108F1000030F2007408F3000230F33571
:1002A800FF3E031D532973350E3E203E860087010D
:1002B8007108C03F7208C13F4030F0007408F10077
:1002C8000230F135FF3E031D652971350C3E203E95
:1002D80086008701700881000130F0007008F4077B
:1002E800F5280030200033020830031932020318C1
:1002F80082293308F4003208F30086290830F30015
:100308000030F400FC30F0007008A40574080339CC
:10031800F0007008A4047308F0007008A5004930C4
:10032800A6000030A7007309F0007409F100F00A74
:100338000319F10A32087007B2003308713DB3009F
:100348004930F0007008BD003F03031DCF29F201BA
:100358007208F000F10174087102031DB5297308D1
:10036800700203180800300884003108850000086E
:10037800F0003D0886008701700881000130B00751
:100388000030B13D0130F0007008BD070130F000C9
:100398007008F207AC29F2017208F000F101740844
:1003A8007102031DD92973087002031808003E085A
:1003B800860087010108F0003D0886008701700863
:1003C80081000130F0007008BE070130F0007008AD
:1003D800BD070130F0007008F207D0291F30200057
:1003E8004005F0007003031D08004408031D0800C1
:1003F8004108F0007008F20006307206031D242A36
:100408004308F0007008F10021307106031D142A1A
:10041800BB01BB0AA330B0008030B10020301F2AD6
:1004280022307106031D242ABB01BB0A6B30B000C1
:100438008030B1002F30B2000030B300BF01BF0AD6
:1004480060304005F00020307006031D080072037C
:100458000319080009307206031D372AB801B80AC3
:10046800BB01BB0A080002307206031D472ABB0104
:10047800BB0A6230F0007008BE000130B2000030E4
:10048800B300BF0108000A307206031D522ABB01DF
:10049800BB0A4308F0007008E20008000330720647
:1004A800031D622ABB01BB0A6330F0007008BE005E
:1004B8000130B2000030B300BF0108000B307206F3
:1004C800031D0800BB01BB0A4208F0007008E300E6
:1004D800080020004108F6007608F7004008603957
:1004E800031D080005307706031D852ABB01BB0ADA
:1004F8000430F6007608B7004208F6007608B60021
:10050800080006307706031D8C2A84316824080009
:1005180009307706031DA62A2000BB01BB0A420842
:10052800F6007608E1006108031D9F2A0430F600F2
:100538007608B70008000530F6007608B700803165
:10054800F120080008307706031DB72A2000BB01F8
:10055800BB0A6130F6007608BE000130B2000030F8
:10056800B300BF0108007708031DBD2A85316C253B
:10057800080077030319C42A03307706031DC72A26
:100588008331AA2308000A307706031DD92A2000E0
:10059800BB01BB0AC9014930F6007608BE0001302C
:1005A800B2000030B300BF0108000B307706031D0E
:1005B80008002000BB01BB0A080020003708031D03
:1005C800EA2A3D0090012000121108003D00101990
:1005D800121DF62A8631FE268231FB30FC007C088B
:1005E8003D0090058E1CFC2A900120001211080085
:1005F8001018121C072B863155268231FE30FC005C
:100608007C083D009005101A121E122B8731062710
:100618008231EF30FC007C083D009005101B121F52
:100628001D2B87311C278231BF30FC007C083D0020
:100638009005901A921E282B8631ED268231DF30E4
:10064800FC007C083D0090059018921C312B9010FE
:100658009301FD30FC007C08900503302000370230
:1006680003183B2B3D0090012000121108003D00AB
:100678009019921D462B84310A24F730FC007C081F
:100688003D0090052000121108007F30F80078081E
:100698002000A4057F30F8007808A005B501BB014B
:1006A800B801B201B30182316D2283318131F22167
:1006B800833120003B08031D6D2B0830A10040301A
:1006C800A2000030A3008430F8007808A00084302D
:1006D800922BC01F962B33084702031D752B320837
:1006E800460203187B2B4708B3004608B200813145
:1006F800752183310230F80078082000B5000830F1
:10070800A1004030A2000030A3008030F800780833
:10071800A0004930A6000030A700C830F8007808CB
:10072800A400A72BB501B50AA501C830F8007808C0
:10073800A4000830A1004930A2000030A300C8304E
:10074800F8007808A0003D000E12080020004008BC
:100758001F39F0007008F2004208F0007008F3003A
:100768007208031DC52B7303031D0800BB01BB0AD8
:1007780003304106031DC32BBA01BA0A0800BA01A7
:10078800080002307206031D080044080F39F00003
:100798007008F40044088039F0007008F500730808
:1007A800031D0800740803190800BB01BB0A74087C
:1007B800F0000230F035FF3E031DDE2B7035203E81
:1007C800F1007108BD0075080319EE2B0430F00024
:1007D8007008BD0703304106031DFA2B8430F00072
:1007E8003D08860087017008810008007503031D15
:1007F800022C3D0886008701810108008830F0003E
:100808003D08860087017008810008003D000F0838
:10081800031D382C20002008F9000230F936890B16
:10082800122C79080F39FA007A08FB000D307B0684
:10083800031D212C83314923080020003503031DA3
:10084800352C8531C02584312000201F302C88307C
:10085800F9007908A0000800C830F9007908A0005C
:1008680008008631DF26080004303D000F06031D0E
:1008780008001608031D502C043020003706031DFD
:10088800502C42083D0096001608031D502C0330DA
:10089800F90079082000B700023020003506031D52
:1008A800652C8131752184312000241F602C88300B
:1008B800F9007908A4000800C830F9007908A400F4
:1008C80008008631DF260800803020004006031D1E
:1008D80008004308F0007008F4004208F0007008AF
:1008E800F3007403031D852CBB01BB0ADB30B00089
:1008F8008030B1001230B2000030B300BF01BF0A2F
:10090800080002307406031D962CBB01BB0A9A30FE
:10091800B0008030B1002930B2000030B300BF0110
:10092800BF0A080003307406031D0800BB01BB0A98
:1009380003307302031CA42CED30B0008030B22CBD
:100948007308F000F101F035F10D2F3070078400C5
:100958008030713D8500003FB000013FB100300894
:100968008400310885000008F000F1017008B20029
:100978007108B300BF01BF0A08002000EA006A0836
:10098800E8000230E835FF3E031DC62C6835083EF6
:10099800203E86008701811B08006A350907023E50
:1009A800643E860087010108E8006A08E900023011
:1009B800E935FF3E031DDC2C6935093E203E8600E3
:1009C8008701680881006A08E8000230E835FF3EC0
:1009D800031DEA2C6835083E203E86008701011F6A
:1009E800062D8830E8006A08E9000230E935FF3E44
:1009F800031DFA2C6935083E203E860087016808E9
:100A080081000800C830E8006A08E9000230E935CA
:100A1800FF3E031D0B2D6935083E203E86008701E9
:100A28006808810008002000EA006A08E80002302F
:100A3800E835FF3E031D1C2D68350C3E203E860020
:100A48008701811B08006A350907643E8600870113
:100A58000108E8006A08E9000230E935FF3E031D95
:100A6800312D69350D3E203E8600870168088100DA
:100A78006A08E8000230E835FF3E031D3F2D68355F
:100A88000C3E203E86008701011F5B2D8830E80060
:100A98006A08E9000230E935FF3E031D4F2D69352C
:100AA8000C3E203E86008701680881000800C83097
:100AB800E8006A08E9000230E935FF3E031D602DB1
:100AC80069350C3E203E86008701680881000800D1
:100AD800200040081F39F0007008F400C901CA015D
:100AE8007408031D812DBB01BB0A3C08031D491472
:100AF8003A080319B32DC914B32D7403031D872DA8
:100B0800BB01BB0AB32D02307406031DB32D440884
:100B18000F39F0007008F20044088039F0007008BE
:100B2800F300BB01BB0A7208F0000230F035FF3E4B
:100B3800031D9A2D7035203EF1007108BD00730821
:100B48000319AA2D0430F0007008BD073D0886007F
:100B58008701011DB32D0130F0007008C9003B0862
:100B6800031908004930F0007008BE000230B200D6
:100B78000030B300BF010800033020002005F0005A
:100B88007008F4002108F30073083207B2007408F3
:100B9800333DB3004930F0007008BE00F101F201A6
:100BA80074087202031DDA2D730871020318080015
:100BB8003E08860087010108F0003D08860087018D
:100BC800700881000130F0007008BE070130F000A5
:100BD8007008BD070130F1070030F23DD42D200028
:100BE800E90069080319FA2D003008006908E800CF
:100BF8000230E835FF3E031DFD2D6835083E203ED6
:100C080086008701811B162E6908E8000230E83546
:100C1800FF3E031D0B2E6835093E203E86008701E6
:100C2800010808000030080080302000E80068084B
:100C3800D90000300E190130DA0000308E19013069
:100C4800DB000330E8006808E9000830690203188F
:100C580008006908593E8600870181010130E800D3
:100C68006808E907292E053020003706031D422EA3
:100C78003D008E18422E8631AE2686310030200087
:100C88000E190130340603190800863118268631FA
:100C9800003085311725003020000E190130B400CE
:100CA80008003D00930190019F3097007B3092002F
:100CB800960116309800901D632E90115F2E0E122B
:100CC8008631DF262000BA01BC01E1010330F100C2
:100CD8007108B70008003D008E19782E8E01920128
:100CE8008E152000B701B70A3D008E1A782E9001A4
:100CF80092011214121602302000E8006808B700AA
:100D08000800803020005106031D8D2E86311826DC
:100D18008631813020005106031D08008E1D962E55
:100D28008E11972E8E1586311826080023008C0107
:100D38008E0121009801FC309900903027009B001B
:100D4800C3302100950004308E0022008E0120005F
:100D5800B401080000308531F3258631003A0319C3
:100D6800080086318526863100308431C1248631D9
:100D7800003085311725080086319A26863186315C
:100D8800D026863186316F2686318631F626863121
:100D9800863137268631CC2E14303D009100200054
:100DA800B701BA01E1013D00960193018731182787
:100DB8003D000E1208002000B5010830A1004030A7
:100DC800A2000030A3008830F0007008A000A40141
:100DD80008003D00181CF42E8631DF263D0018104F
:100DE800901208004B303D0092000B178B17210022
:100DF800121508003D008E101211FB30F00070082B
:100E0800900508003D001215EF30F00070089005BD
:100E18008E140800640080010131890B0F2F003403
:100E280008345934083451343D000E170E130800A5
:060E38003D00101308004C
:020000040001F9
:04000E00A4CFCFDFCD
:00000001FF
